:020000020000FC
:100000000C948D010F932F933F93009132000F7D3D
:1000100024FD00620093340000912C00077F25FD31
:10002000086000932E0000910001077F26FD086004
:1000300000930201009100010F7E27FD00610093F3
:1000400002010091000100640093020131E00E946E
:100050005001009100010F7B009302013F912F910D
:100060000F9108952F933F930F93DF93CF93DEB7B4
:10007000CDB729850E94020032E30E9450012295EB
:100080000E94020032E30E945001CF91DF910F9154
:100090003F912F9108950F933F932F93DF93CF9329
:1000A000DEB7CDB72985009100010F7D00930201D5
:1000B0002F930E9432002F91243018F432E00E94D6
:1000C0005A01CF91DF912F913F910F9108950F9396
:1000D0002F93DF93CF93DEB7CDB728850091000132
:1000E0000062009302012F930E9432002F91009131
:1000F0000102039500930102CF91DF912F910F919F
:1001000008950F931F93DF93CF93FF93EF93DEB781
:10011000CDB7FB85EA851191103029F01F930E941D
:1001200067001F91F8CFEF91FF91CF91DF911F9161
:100130000F9108950F931F93DF93CF93DEB7CDB741
:100140000885198511301CF011E00C94AA000F30BD
:100150000CF00FE01093000200930102113019F42B
:1001600010EC0C94B40010E8010F0F930E944B00A8
:100170000F91CF91DF911F910F9108950F9301E09F
:100180000F930E944B000F910027009300020093F1
:1001900001020F9108950F932F933F930091330025
:1001A000006200933300009132000F7D0093340011
:1001B00000912D00086000932D0000912C00077F16
:1001C00000932E000091010108600093010100914D
:1001D0000001077F0093020100910101006100937B
:1001E0000101009100010F7E0093020100910101C5
:1001F000006200930101009100010F7D0093020154
:1002000000910101006400930101009100010F7B46
:10021000009302013FE00E945A0135E00E945A011A
:1002200020E30E94020035E00E945A0120E30E9470
:10023000020057E03FE00E945A015A95D9F720E3A7
:100240000E94020032E30E94500120E20E9402005C
:1002500032E30E94500108E20F930E944B000F917D
:1002600008E00F930E944B000F9101E00F930E9452
:100270004B000F9132E00E945A0106E00F930E945A
:100280004B000F910CE00F930E944B000F91002741
:1002900000930002009301023F912F910F91089566
:1002A0000F933F9305E00A95F1F73A95D9F73F91FF
:1002B0000F9108950F931F933F93DF93CF930DEF0B
:1002C000309F012D0295007FD02F002D0295102F19
:1002D000007F1F70C02FD12B2197F1F7CF91DF91B5
:1002E0003F911F910F9108950F93FF93EF93BF9349
:1002F000AF93DF93CF93DEB7CDB7EB85FC85AD85AC
:10030000BE85059100300D93E1F7CF91DF91AF915C
:10031000BF91EF91FF910F91089507E800937A0044
:1003200000E400937C000E94CB000E94BE000E946B
:1003300066020E94A10223E000E00F9300E00F9309
:100340000E949A000F9303E00F9302E90F930E941B
:1003500081000F9101E00F9300E00F930E949A003B
:100360000F9303E00F9305EA0F930E9481000F9112
:100370000E94CA020E94BE0000E00F9301E00F93AA
:100380000E949A000F9303E00F9305EA0F930E94D7
:1003900081000F9101E00F9301E00F930E949A00FA
:1003A0000F9303E00F9308EB0F930E9481000F91CE
:1003B0000E94CA020E94BE0000E00F9300E00F936B
:1003C0000E949A000F9303E00F9308EB0F930E9493
:1003D00081000F9101E00F9300E00F930E949A00BB
:1003E0000F9303E00F930BEC0F930E9481000F918A
:1003F0000E94CA020E94BE0000E00F9301E00F932A
:100400000E949A000F9303E00F930BEC0F930E944E
:1004100081000F9101E00F9301E00F930E949A0079
:100420000F9303E00F9302E90F930E9481000F9155
:100430000E94CA020E94CA022A95222311F00C943B
:100440009C0100C00E94BE0000E00F9300E00F93EB
:100450000E949A000F9303E00F930EED0F930E94FA
:1004600081000F9101E00F9300E00F930E949A002A
:100470000F9303E00F930EED0F930E9481000F91F5
:100480000E94CA020E94BE0000E00F9300E00F939A
:100490000E949A000F9303E00F9301EF0F930E94C5
:1004A00081000F9101E00F9300E00F930E949A00EA
:1004B0000F9303E00F9301EF0F930E9481000F91C0
:1004C0000E94CA020E94BE000C9422020F9303E015
:1004D0000F9302E90F9306E00F9304EA0F930E9433
:1004E00074010F910F910F910F9103E00F9305EAA3
:1004F0000F9306E00F9306EB0F930E9474010F9188
:100500000F910F910F9103E00F930EED0F9306E003
:100510000F930AEC0F930E9474010F910F910F91AA
:100520000F9103E00F9301EF0F9306E00F930EED91
:100530000F930E9474010F910F910F910F910F91E2
:1005400008957F93FF93EF93BF93AF9370E07F93F2
:10055000F3E0E2E9B3E0A8EB719177237F93E1F751
:100560007F917F917D937723E1F770E07F93F3E0B4
:10057000E5EAB3E0ABEC719177237F93E1F77F91EC
:100580007F917D937723E1F7AF91BF91EF91FF9139
:100590007F9108954F935F936F938F9348E000008E
:1005A0005FEF00006FEF0E94EE02813051F0823069
:1005B00061F06A95C1F75A95A1F74A9581F70C94B5
:1005C000E9020E940C030C94E9020E942F030C9490
:1005D000E9028F916F915F914F9108950F931F934F
:1005E00000917A00006400937A0000917A00007410
:1005F00000917800109179008827123054F410305F
:1006000011F0113019F081E00C94090382E00C9490
:1006100009031F910F9108950F930E94BE0000E0FF
:100620000F9300E00F930E949A000F9303E00F9343
:1006300002E90F930E9481000F9101E00F9300E007
:100640000F930E949A000F9303E00F9305EA0F9314
:100650000E9481000F910F910E94CA0208950F938A
:100660000E94BE0000E00F9300E00F930E949A00EA
:100670000F9303E00F9308EB0F930E9481000F91FB
:1006800001E00F9300E00F930E949A000F9303E0A4
:100690000F930BEC0F930E9481000F910F910E941A
:1006A000CA0208954B6576696E2053616E204761DA
:1006B000627269656C00555649433A20436F6D700C
:1006C000757465722053636900002A2A2A2A2A2A2F
:1006D0002A2A2A2A2A2A2A2A2A2A2A2A00002E2EC6
:1006E0002E2E2E2E2E2E2E2E2E2E2E2E2E2E2E2E2A
:0206F000000008
:00000001FF
