:020000020000FC
:100000000FEF0DBF01E20EBF00E00F9304E90F9365
:1000100002E00F9300E00F930E941C00EF91FF910C
:100020000F910F91EF93FF930E943500FF91EF9195
:1000300080930E020C941A00EF93FF93DF93CF93FB
:10004000AF93BF937F93DEB7CDB7FE85ED85BC85BB
:10005000AB8575917D937723E1F77F91BF91AF9148
:10006000CF91DF91FF91EF9108958827FF93EF9350
:10007000DF93CF937F93DEB7CDB7FA85E98575918E
:1000800083957723E1F78A957F91CF91DF91EF9167
:10009000FF91089548656C6C6F2C20776F726C64CB
:0200A00021003D
:00000001FF
